:100800000D0A554152542D4C454420546F67676C76
:1008100065205265616479210D0A0053656E64207C
:1008200027312720746F207475726E204F4E2C2054
:1008300027302720746F207475726E204F46460D46
:100840000A3E20000D0A4C4544204F4E0D0A3E2022
:10085000000D0A4C4544204F46460D0A3E20000D2F
:100860000A496E76616C69642E2053656E64202798
:0E0870003127206F72202730270D0A3E20000E
:0C091200758920758DFD759850D28E22DD
:08092A008F993099FDC299225A
:080932003098FDC298AF992234
:0608EE008B088A09890A4B
:1008F400E4FDFCAB08AA09A90A8D828C831208C105
:0D090400FF600A12092A0DBD00010C80E6FB
:0109110022C3
:10087E00C2901209127BFF7A0879001208EE7BFFF4
:10088E007A08791B801D120932AE07BE310AD2904A
:10089E007BFF7A087944800BBE300DC2907BFF7AC5
:1008AE000879511208EE80DE7BFF7A08795F120814
:0308BE00EE80D3F6
:0300000002091ED4
:0C091E00787FE4F6D8FD75810A02087E9F
:1008C100BB010CE58229F582E5833AF583E02250EC
:1008D10006E92582F8E622BBFE06E92582F8E22236
:0D08E100E58229F582E5833AF583E4932250
:00000001FF
